{
    "connectBlocks": {
        "syncRanges": [
            {"lower": 616370, "upper": 616378}
        ],
        "blocks": {
            "616378": {
                "height": 616378,
                "hash": "0e0e5aa1677c3ccf8a695bb9dad2f4a303ad48a89af43a2dc9a894fe9acec19d",
                "noTxs": 2,
                "txDetails": [
                    {
                        "txid": "03373ea8f292d7b5fb8cadeb70aa958389c9774ac9c55ffe387ab93282ee73ab",
                        "version": 1,
                        "vin": [
                            {
                              "coinbase": "03ba6709046409a75e088100eae1cb0000007a706f6f6c2e636100",
                              "sequence": 0
                            }
                          ],
                          "vout": [
                            {
                              "value": 0,
                              "n": 0,
                              "scriptPubKey": {
                                "asm": "OP_RETURN aa21a9ed16acd48eca5d4272d6cf6fe7ddd386f7c56c8fb1ca858868acd0fdf1749cd887",
                                "hex": "6a24aa21a9ed16acd48eca5d4272d6cf6fe7ddd386f7c56c8fb1ca858868acd0fdf1749cd887",
                                "type": "nulldata"
                              }
                            },
                            {
                              "value": 125.0000777,
                              "n": 1,
                              "scriptPubKey": {
                                "asm": "OP_HASH160 6afc054e15c99716c5170867d1e9e04f6049fe6e OP_EQUAL",
                                "hex": "a9146afc054e15c99716c5170867d1e9e04f6049fe6e87",
                                "reqSigs": 1,
                                "type": "scripthash",
                                "addresses": [
                                  "3BShTarmgLNkM45fRHZ8vn7aRJBq673Dbw"
                                ]
                              }
                            }
                          ],
                          "hex": "010000000001010000000000000000000000000000000000000000000000000000000000000000ffffffff1b03ba6709046409a75e088100eae1cb0000007a706f6f6c2e63610000000000020000000000000000266a24aa21a9ed16acd48eca5d4272d6cf6fe7ddd386f7c56c8fb1ca858868acd0fdf1749cd887897f814a0000000017a9146afc054e15c99716c5170867d1e9e04f6049fe6e870120000000000000000000000000000000000000000000000000000000000000000000000000",
                          "time": 1588005220,
                          "blocktime": 1588005220
                    },
                    {
                        "txid": "97094f91c7de70e62ce0c26fc166729d78e6b27b4de6709f901ca3dd25265b3d",
                        "version": 12,
                        "vin": [
                            {
                              "txid": "9ef1455d34366a1d828d76a1efad21de5048c369c4089cfb1b41c0c8e8740bfd",
                              "vout": 0,
                              "scriptSig": {
                                "asm": "001494c84723949f94d424677f11d815c585fe904559",
                                "hex": "16001494c84723949f94d424677f11d815c585fe904559"
                              },
                              "txinwitness": [
                                "30440220790b34e67f1818a237c518e0daa57a2ced9f1140affefbcdcd44bc5c96e0b5040220335aad0f6a3a8e4b0dddb97f4e8a4d31873c8fd46c956231c1cf6ec2df3267a801",
                                "02ca5dd526c6b879c53d1cc20541e00d70458996c0d86c7a640a88122fd407be1c"
                              ],
                              "sequence": 4294967294
                            }
                          ],
                          "vout": [
                            {
                              "value": 1801.5910213,
                              "n": 0,
                              "scriptPubKey": {
                                "asm": "OP_HASH160 829645e4f5ca4eb217bf67065955932c27a51878 OP_EQUAL",
                                "hex": "a914829645e4f5ca4eb217bf67065955932c27a5187887",
                                "reqSigs": 1,
                                "type": "scripthash",
                                "addresses": [
                                  "3DbVndknz1NC2xDN9FA2KuyUqXzgpXVCX5"
                                ]
                              }
                            },
                            {
                              "value": 2818.999901,
                              "n": 1,
                              "scriptPubKey": {
                                "asm": "OP_DUP OP_HASH160 86af5c1d5e754fc8906ec3c5d26e0135e1cb7c85 OP_EQUALVERIFY OP_CHECKSIG",
                                "hex": "76a91486af5c1d5e754fc8906ec3c5d26e0135e1cb7c8588ac",
                                "reqSigs": 1,
                                "type": "pubkeyhash",
                                "addresses": [
                                  "1DH9cvKqGgzCvwoap45Nh75qV62wqje9pJ"
                                ]
                              }
                            }
                          ],
                          "hex": "0c0000006ad6997f382446c107070cae347af2a0bce7168838355c86909946721e53ef2e000101fd0b74e8c8c0411bfb9c08c469c34850de21adefa1768d821d6a36345d45f19e000000001716001494c84723949f94d424677f11d815c585fe904559feffffff0245f9d4310400000017a914829645e4f5ca4eb217bf67065955932c27a5187887a23f4190060000001976a91486af5c1d5e754fc8906ec3c5d26e0135e1cb7c8588ac024730440220790b34e67f1818a237c518e0daa57a2ced9f1140affefbcdcd44bc5c96e0b5040220335aad0f6a3a8e4b0dddb97f4e8a4d31873c8fd46c956231c1cf6ec2df3267a8012102ca5dd526c6b879c53d1cc20541e00d70458996c0d86c7a640a88122fd407be1cb7670900",
                          "time": 1588005220,
                          "blocktime": 1588005220
                    }
                ]
            },
            "616377": {
                "height": 616377,
                "hash": "e377da1faaeec45ce1f3b23d541f66167d3b8a567abf057e665ab83742a44ae4",
                "noTxs": 1,
                "txDetails": [
                    {
                        "txid": "befef50bf3694570b8fceb6f1717ff4e328717b6266d4a092566f8de8c99d99f",
                        "version": 1,
                        "vin": [
                            {
                              "coinbase": "03b96709044f08a75e08810001547000000062736f642e736f6c6f2e362e333000",
                              "sequence": 0
                            }
                          ],
                          "vout": [
                            {
                              "value": 125,
                              "n": 0,
                              "scriptPubKey": {
                                "asm": "OP_DUP OP_HASH160 2457d402ce6192e65a0fafca69b69e4bf4cf6358 OP_EQUALVERIFY OP_CHECKSIG",
                                "hex": "76a9142457d402ce6192e65a0fafca69b69e4bf4cf635888ac",
                                "reqSigs": 1,
                                "type": "pubkeyhash",
                                "addresses": [
                                  "14KAYKDDnp6qVtQKRPJ9MaPJdAL6nwziyn"
                                ]
                              }
                            }
                          ],
                          "hex": "01000000010000000000000000000000000000000000000000000000000000000000000000ffffffff2103b96709044f08a75e08810001547000000062736f642e736f6c6f2e362e3330000000000001807c814a000000001976a9142457d402ce6192e65a0fafca69b69e4bf4cf635888ac00000000",
                          "time": 1588004941,
                          "blocktime": 1588004941
                    }
                ]
            }
        }
    },
    "connectBlocks": {
        "syncRanges": [
            {"lower": 616370, "upper": 616378}
        ],
        "fakeBlocks": {
            "616371": {
                "height": 616371,
                "hash": "c40cbda4b7c5acc389f0052adb6b9f29304a0fd5276ba7ad36ae5206d83b9760"
            },
            "616372": {
                "height": 616372,
                "hash": "dfdca5d8e37ed25b52ce34c10c414d07c7405c9b1ff9ce83f7740fbe6e6a91e7"
            },
            "616373": {
                "height": 616373,
                "hash": "78a87e067b34b7126708a402844557860f980da79329a5f769e6cd118d47811b"
            }
        },
        "realBlocks": {
            "616371": {
                "height": 616371,
                "hash": "1fa64598f0b16f5fd755dee83c977774c7a033da0f387cf5f64e3f38d733b360"
            },
            "616372": {
                "height": 616372,
                "hash": "d89ae4c0f0472b65fee499f1479cd2ac04257adbfbe8e873afecf3cb917ab405"
            },
            "616373": {
                "height": 616373,
                "hash": "5eccfbc49591dc7ff0e7873781cf4e42c52a0ac327e6e1383b3d06ca9a13f4ba"
            }
        }
    }
}
